{
  "_format": "hh-sol-artifact-1",
  "contractName": "CyberPunkNFT",
  "sourceName": "contracts/CyberPunkNFT.sol",
  "abi": [
    {
      "inputs": [],
      "stateMutability": "payable",
      "type": "constructor"
    },
    {
      "anonymous": false,
      "inputs": [
        {
          "indexed": true,
          "internalType": "address",
          "name": "owner",
          "type": "address"
        },
        {
          "indexed": true,
          "internalType": "address",
          "name": "approved",
          "type": "address"
        },
        {
          "indexed": true,
          "internalType": "uint256",
          "name": "tokenId",
          "type": "uint256"
        }
      ],
      "name": "Approval",
      "type": "event"
    },
    {
      "anonymous": false,
      "inputs": [
        {
          "indexed": true,
          "internalType": "address",
          "name": "owner",
          "type": "address"
        },
        {
          "indexed": true,
          "internalType": "address",
          "name": "operator",
          "type": "address"
        },
        {
          "indexed": false,
          "internalType": "bool",
          "name": "approved",
          "type": "bool"
        }
      ],
      "name": "ApprovalForAll",
      "type": "event"
    },
    {
      "anonymous": false,
      "inputs": [
        {
          "indexed": true,
          "internalType": "address",
          "name": "previousOwner",
          "type": "address"
        },
        {
          "indexed": true,
          "internalType": "address",
          "name": "newOwner",
          "type": "address"
        }
      ],
      "name": "OwnershipTransferred",
      "type": "event"
    },
    {
      "anonymous": false,
      "inputs": [
        {
          "indexed": true,
          "internalType": "address",
          "name": "from",
          "type": "address"
        },
        {
          "indexed": true,
          "internalType": "address",
          "name": "to",
          "type": "address"
        },
        {
          "indexed": true,
          "internalType": "uint256",
          "name": "tokenId",
          "type": "uint256"
        }
      ],
      "name": "Transfer",
      "type": "event"
    },
    {
      "inputs": [
        {
          "internalType": "address",
          "name": "to",
          "type": "address"
        },
        {
          "internalType": "uint256",
          "name": "tokenId",
          "type": "uint256"
        }
      ],
      "name": "approve",
      "outputs": [],
      "stateMutability": "nonpayable",
      "type": "function"
    },
    {
      "inputs": [
        {
          "internalType": "address",
          "name": "owner",
          "type": "address"
        }
      ],
      "name": "balanceOf",
      "outputs": [
        {
          "internalType": "uint256",
          "name": "",
          "type": "uint256"
        }
      ],
      "stateMutability": "view",
      "type": "function"
    },
    {
      "inputs": [
        {
          "internalType": "uint256",
          "name": "tokenId",
          "type": "uint256"
        }
      ],
      "name": "getApproved",
      "outputs": [
        {
          "internalType": "address",
          "name": "",
          "type": "address"
        }
      ],
      "stateMutability": "view",
      "type": "function"
    },
    {
      "inputs": [
        {
          "internalType": "address",
          "name": "owner",
          "type": "address"
        },
        {
          "internalType": "address",
          "name": "operator",
          "type": "address"
        }
      ],
      "name": "isApprovedForAll",
      "outputs": [
        {
          "internalType": "bool",
          "name": "",
          "type": "bool"
        }
      ],
      "stateMutability": "view",
      "type": "function"
    },
    {
      "inputs": [],
      "name": "isPublicMintEnabled",
      "outputs": [
        {
          "internalType": "bool",
          "name": "",
          "type": "bool"
        }
      ],
      "stateMutability": "view",
      "type": "function"
    },
    {
      "inputs": [],
      "name": "maxPerWallet",
      "outputs": [
        {
          "internalType": "uint256",
          "name": "",
          "type": "uint256"
        }
      ],
      "stateMutability": "view",
      "type": "function"
    },
    {
      "inputs": [],
      "name": "maxSupply",
      "outputs": [
        {
          "internalType": "uint256",
          "name": "",
          "type": "uint256"
        }
      ],
      "stateMutability": "view",
      "type": "function"
    },
    {
      "inputs": [
        {
          "internalType": "uint256",
          "name": "quantity_",
          "type": "uint256"
        }
      ],
      "name": "mint",
      "outputs": [],
      "stateMutability": "payable",
      "type": "function"
    },
    {
      "inputs": [],
      "name": "mintPrice",
      "outputs": [
        {
          "internalType": "uint256",
          "name": "",
          "type": "uint256"
        }
      ],
      "stateMutability": "view",
      "type": "function"
    },
    {
      "inputs": [],
      "name": "name",
      "outputs": [
        {
          "internalType": "string",
          "name": "",
          "type": "string"
        }
      ],
      "stateMutability": "view",
      "type": "function"
    },
    {
      "inputs": [],
      "name": "owner",
      "outputs": [
        {
          "internalType": "address",
          "name": "",
          "type": "address"
        }
      ],
      "stateMutability": "view",
      "type": "function"
    },
    {
      "inputs": [
        {
          "internalType": "uint256",
          "name": "tokenId",
          "type": "uint256"
        }
      ],
      "name": "ownerOf",
      "outputs": [
        {
          "internalType": "address",
          "name": "",
          "type": "address"
        }
      ],
      "stateMutability": "view",
      "type": "function"
    },
    {
      "inputs": [],
      "name": "renounceOwnership",
      "outputs": [],
      "stateMutability": "nonpayable",
      "type": "function"
    },
    {
      "inputs": [
        {
          "internalType": "address",
          "name": "from",
          "type": "address"
        },
        {
          "internalType": "address",
          "name": "to",
          "type": "address"
        },
        {
          "internalType": "uint256",
          "name": "tokenId",
          "type": "uint256"
        }
      ],
      "name": "safeTransferFrom",
      "outputs": [],
      "stateMutability": "nonpayable",
      "type": "function"
    },
    {
      "inputs": [
        {
          "internalType": "address",
          "name": "from",
          "type": "address"
        },
        {
          "internalType": "address",
          "name": "to",
          "type": "address"
        },
        {
          "internalType": "uint256",
          "name": "tokenId",
          "type": "uint256"
        },
        {
          "internalType": "bytes",
          "name": "data",
          "type": "bytes"
        }
      ],
      "name": "safeTransferFrom",
      "outputs": [],
      "stateMutability": "nonpayable",
      "type": "function"
    },
    {
      "inputs": [
        {
          "internalType": "address",
          "name": "operator",
          "type": "address"
        },
        {
          "internalType": "bool",
          "name": "approved",
          "type": "bool"
        }
      ],
      "name": "setApprovalForAll",
      "outputs": [],
      "stateMutability": "nonpayable",
      "type": "function"
    },
    {
      "inputs": [
        {
          "internalType": "string",
          "name": "baseTokenUri_",
          "type": "string"
        }
      ],
      "name": "setBaseTokenUri",
      "outputs": [],
      "stateMutability": "nonpayable",
      "type": "function"
    },
    {
      "inputs": [
        {
          "internalType": "bool",
          "name": "isPublicMintEnabled_",
          "type": "bool"
        }
      ],
      "name": "setPublicMintEnabled",
      "outputs": [],
      "stateMutability": "nonpayable",
      "type": "function"
    },
    {
      "inputs": [
        {
          "internalType": "bytes4",
          "name": "interfaceId",
          "type": "bytes4"
        }
      ],
      "name": "supportsInterface",
      "outputs": [
        {
          "internalType": "bool",
          "name": "",
          "type": "bool"
        }
      ],
      "stateMutability": "view",
      "type": "function"
    },
    {
      "inputs": [],
      "name": "symbol",
      "outputs": [
        {
          "internalType": "string",
          "name": "",
          "type": "string"
        }
      ],
      "stateMutability": "view",
      "type": "function"
    },
    {
      "inputs": [
        {
          "internalType": "uint256",
          "name": "tokenId_",
          "type": "uint256"
        }
      ],
      "name": "tokenURI",
      "outputs": [
        {
          "internalType": "string",
          "name": "",
          "type": "string"
        }
      ],
      "stateMutability": "view",
      "type": "function"
    },
    {
      "inputs": [],
      "name": "totalSupply",
      "outputs": [
        {
          "internalType": "uint256",
          "name": "",
          "type": "uint256"
        }
      ],
      "stateMutability": "view",
      "type": "function"
    },
    {
      "inputs": [
        {
          "internalType": "address",
          "name": "from",
          "type": "address"
        },
        {
          "internalType": "address",
          "name": "to",
          "type": "address"
        },
        {
          "internalType": "uint256",
          "name": "tokenId",
          "type": "uint256"
        }
      ],
      "name": "transferFrom",
      "outputs": [],
      "stateMutability": "nonpayable",
      "type": "function"
    },
    {
      "inputs": [
        {
          "internalType": "address",
          "name": "newOwner",
          "type": "address"
        }
      ],
      "name": "transferOwnership",
      "outputs": [],
      "stateMutability": "nonpayable",
      "type": "function"
    },
    {
      "inputs": [
        {
          "internalType": "address",
          "name": "",
          "type": "address"
        }
      ],
      "name": "walletMints",
      "outputs": [
        {
          "internalType": "uint256",
          "name": "",
          "type": "uint256"
        }
      ],
      "stateMutability": "view",
      "type": "function"
    },
    {
      "inputs": [],
      "name": "withdraw",
      "outputs": [],
      "stateMutability": "nonpayable",
      "type": "function"
    },
    {
      "inputs": [],
      "name": "withdrawWallet",
      "outputs": [
        {
          "internalType": "address payable",
          "name": "",
          "type": "address"
        }
      ],
      "stateMutability": "view",
      "type": "function"
    }
  ],
  "bytecode": "0x60806040526040518060400160405280600a81526020017f437962657250756e6b73000000000000000000000000000000000000000000008152506040518060400160405280600281526020017f4350000000000000000000000000000000000000000000000000000000000000815250816000908051906020019062000088929190620001bf565b508060019080519060200190620000a1929190620001bf565b505050620000c4620000b8620000f160201b60201c565b620000f960201b60201c565b66470de4df82000060078190555060006008819055506103e86009819055506003600a81905550620002d4565b600033905090565b6000600660009054906101000a900473ffffffffffffffffffffffffffffffffffffffff16905081600660006101000a81548173ffffffffffffffffffffffffffffffffffffffff021916908373ffffffffffffffffffffffffffffffffffffffff1602179055508173ffffffffffffffffffffffffffffffffffffffff168173ffffffffffffffffffffffffffffffffffffffff167f8be0079c531659141344cd1fd0a4f28419497f9722a3daafe3b4186f6b6457e060405160405180910390a35050565b828054620001cd906200026f565b90600052602060002090601f016020900481019282620001f157600085556200023d565b82601f106200020c57805160ff19168380011785556200023d565b828001600101855582156200023d579182015b828111156200023c5782518255916020019190600101906200021f565b5b5090506200024c919062000250565b5090565b5b808211156200026b57600081600090555060010162000251565b5090565b600060028204905060018216806200028857607f821691505b602082108114156200029f576200029e620002a5565b5b50919050565b7f4e487b7100000000000000000000000000000000000000000000000000000000600052602260045260246000fd5b6133da80620002e46000396000f3fe60806040526004361061019c5760003560e01c8063715018a6116100ec578063a22cb4651161008a578063d5abeb0111610064578063d5abeb0114610593578063e985e9c5146105be578063f0293fd3146105fb578063f2fde38b146106385761019c565b8063a22cb46514610504578063b88d4fde1461052d578063c87b56dd146105565761019c565b80638da5cb5b116100c65780638da5cb5b1461046957806395652cfa1461049457806395d89b41146104bd578063a0712d68146104e85761019c565b8063715018a6146103fe578063818668d71461041557806385d178f41461043e5761019c565b806323b872dd11610159578063453c231011610133578063453c23101461032e5780636352211e146103595780636817c76c1461039657806370a08231146103c15761019c565b806323b872dd146102c55780633ccfd60b146102ee57806342842e0e146103055761019c565b80630116bc2d146101a157806301ffc9a7146101cc57806306fdde0314610209578063081812fc14610234578063095ea7b31461027157806318160ddd1461029a575b600080fd5b3480156101ad57600080fd5b506101b6610661565b6040516101c39190612832565b60405180910390f35b3480156101d857600080fd5b506101f360048036038101906101ee9190612292565b610674565b6040516102009190612832565b60405180910390f35b34801561021557600080fd5b5061021e610756565b60405161022b919061284d565b60405180910390f35b34801561024057600080fd5b5061025b60048036038101906102569190612329565b6107e8565b60405161026891906127b0565b60405180910390f35b34801561027d57600080fd5b506102986004803603810190610293919061222d565b61082e565b005b3480156102a657600080fd5b506102af610946565b6040516102bc9190612aaf565b60405180910390f35b3480156102d157600080fd5b506102ec60048036038101906102e79190612127565b61094c565b005b3480156102fa57600080fd5b506103036109ac565b005b34801561031157600080fd5b5061032c60048036038101906103279190612127565b610a85565b005b34801561033a57600080fd5b50610343610aa5565b6040516103509190612aaf565b60405180910390f35b34801561036557600080fd5b50610380600480360381019061037b9190612329565b610aab565b60405161038d91906127b0565b60405180910390f35b3480156103a257600080fd5b506103ab610b5d565b6040516103b89190612aaf565b60405180910390f35b3480156103cd57600080fd5b506103e860048036038101906103e391906120c2565b610b63565b6040516103f59190612aaf565b60405180910390f35b34801561040a57600080fd5b50610413610c1b565b005b34801561042157600080fd5b5061043c60048036038101906104379190612269565b610c2f565b005b34801561044a57600080fd5b50610453610c54565b60405161046091906127cb565b60405180910390f35b34801561047557600080fd5b5061047e610c7a565b60405161048b91906127b0565b60405180910390f35b3480156104a057600080fd5b506104bb60048036038101906104b691906122e4565b610ca4565b005b3480156104c957600080fd5b506104d2610cc2565b6040516104df919061284d565b60405180910390f35b61050260048036038101906104fd9190612329565b610d54565b005b34801561051057600080fd5b5061052b600480360381019061052691906121f1565b610f2b565b005b34801561053957600080fd5b50610554600480360381019061054f9190612176565b610f41565b005b34801561056257600080fd5b5061057d60048036038101906105789190612329565b610fa3565b60405161058a919061284d565b60405180910390f35b34801561059f57600080fd5b506105a861101f565b6040516105b59190612aaf565b60405180910390f35b3480156105ca57600080fd5b506105e560048036038101906105e091906120eb565b611025565b6040516105f29190612832565b60405180910390f35b34801561060757600080fd5b50610622600480360381019061061d91906120c2565b6110b9565b60405161062f9190612aaf565b60405180910390f35b34801561064457600080fd5b5061065f600480360381019061065a91906120c2565b6110d1565b005b600b60009054906101000a900460ff1681565b60007f80ac58cd000000000000000000000000000000000000000000000000000000007bffffffffffffffffffffffffffffffffffffffffffffffffffffffff1916827bffffffffffffffffffffffffffffffffffffffffffffffffffffffff1916148061073f57507f5b5e139f000000000000000000000000000000000000000000000000000000007bffffffffffffffffffffffffffffffffffffffffffffffffffffffff1916827bffffffffffffffffffffffffffffffffffffffffffffffffffffffff1916145b8061074f575061074e82611155565b5b9050919050565b60606000805461076590612d60565b80601f016020809104026020016040519081016040528092919081815260200182805461079190612d60565b80156107de5780601f106107b3576101008083540402835291602001916107de565b820191906000526020600020905b8154815290600101906020018083116107c157829003601f168201915b5050505050905090565b60006107f3826111bf565b6004600083815260200190815260200160002060009054906101000a900473ffffffffffffffffffffffffffffffffffffffff169050919050565b600061083982610aab565b90508073ffffffffffffffffffffffffffffffffffffffff168373ffffffffffffffffffffffffffffffffffffffff1614156108aa576040517f08c379a00000000000000000000000000000000000000000000000000000000081526004016108a190612a4f565b60405180910390fd5b8073ffffffffffffffffffffffffffffffffffffffff166108c961120a565b73ffffffffffffffffffffffffffffffffffffffff1614806108f857506108f7816108f261120a565b611025565b5b610937576040517f08c379a000000000000000000000000000000000000000000000000000000000815260040161092e906129cf565b60405180910390fd5b6109418383611212565b505050565b60085481565b61095d61095761120a565b826112cb565b61099c576040517f08c379a000000000000000000000000000000000000000000000000000000000815260040161099390612a6f565b60405180910390fd5b6109a7838383611360565b505050565b6109b46115c7565b6000600d60009054906101000a900473ffffffffffffffffffffffffffffffffffffffff1673ffffffffffffffffffffffffffffffffffffffff16476040516109fc9061279b565b60006040518083038185875af1925050503d8060008114610a39576040519150601f19603f3d011682016040523d82523d6000602084013e610a3e565b606091505b5050905080610a82576040517f08c379a0000000000000000000000000000000000000000000000000000000008152600401610a799061292f565b60405180910390fd5b50565b610aa083838360405180602001604052806000815250610f41565b505050565b600a5481565b6000806002600084815260200190815260200160002060009054906101000a900473ffffffffffffffffffffffffffffffffffffffff169050600073ffffffffffffffffffffffffffffffffffffffff168173ffffffffffffffffffffffffffffffffffffffff161415610b54576040517f08c379a0000000000000000000000000000000000000000000000000000000008152600401610b4b90612a2f565b60405180910390fd5b80915050919050565b60075481565b60008073ffffffffffffffffffffffffffffffffffffffff168273ffffffffffffffffffffffffffffffffffffffff161415610bd4576040517f08c379a0000000000000000000000000000000000000000000000000000000008152600401610bcb906129af565b60405180910390fd5b600360008373ffffffffffffffffffffffffffffffffffffffff1673ffffffffffffffffffffffffffffffffffffffff168152602001908152602001600020549050919050565b610c236115c7565b610c2d6000611645565b565b610c376115c7565b80600b60006101000a81548160ff02191690831515021790555050565b600d60009054906101000a900473ffffffffffffffffffffffffffffffffffffffff1681565b6000600660009054906101000a900473ffffffffffffffffffffffffffffffffffffffff16905090565b610cac6115c7565b8181600c9190610cbd929190611f04565b505050565b606060018054610cd190612d60565b80601f0160208091040260200160405190810160405280929190818152602001828054610cfd90612d60565b8015610d4a5780601f10610d1f57610100808354040283529160200191610d4a565b820191906000526020600020905b815481529060010190602001808311610d2d57829003601f168201915b5050505050905090565b600b60009054906101000a900460ff16610da3576040517f08c379a0000000000000000000000000000000000000000000000000000000008152600401610d9a906128af565b60405180910390fd5b60075481610db19190612c0a565b3414610df2576040517f08c379a0000000000000000000000000000000000000000000000000000000008152600401610de99061286f565b60405180910390fd5b60095481600854610e039190612b83565b1115610e44576040517f08c379a0000000000000000000000000000000000000000000000000000000008152600401610e3b9061298f565b60405180910390fd5b600a5481600e60003373ffffffffffffffffffffffffffffffffffffffff1673ffffffffffffffffffffffffffffffffffffffff16815260200190815260200160002054610e929190612b83565b1115610ed3576040517f08c379a0000000000000000000000000000000000000000000000000000000008152600401610eca9061298f565b60405180910390fd5b60005b81811015610f275760006001600854610eef9190612b83565b905060086000815480929190610f0490612dc3565b9190505550610f13338261170b565b508080610f1f90612dc3565b915050610ed6565b5050565b610f3d610f3661120a565b8383611729565b5050565b610f52610f4c61120a565b836112cb565b610f91576040517f08c379a0000000000000000000000000000000000000000000000000000000008152600401610f8890612a6f565b60405180910390fd5b610f9d84848484611896565b50505050565b6060610fae826118f2565b610fed576040517f08c379a0000000000000000000000000000000000000000000000000000000008152600401610fe490612a8f565b60405180910390fd5b600c610ff88361195e565b60405160200161100992919061276c565b6040516020818303038152906040529050919050565b60095481565b6000600560008473ffffffffffffffffffffffffffffffffffffffff1673ffffffffffffffffffffffffffffffffffffffff16815260200190815260200160002060008373ffffffffffffffffffffffffffffffffffffffff1673ffffffffffffffffffffffffffffffffffffffff16815260200190815260200160002060009054906101000a900460ff16905092915050565b600e6020528060005260406000206000915090505481565b6110d96115c7565b600073ffffffffffffffffffffffffffffffffffffffff168173ffffffffffffffffffffffffffffffffffffffff161415611149576040517f08c379a0000000000000000000000000000000000000000000000000000000008152600401611140906128cf565b60405180910390fd5b61115281611645565b50565b60007f01ffc9a7000000000000000000000000000000000000000000000000000000007bffffffffffffffffffffffffffffffffffffffffffffffffffffffff1916827bffffffffffffffffffffffffffffffffffffffffffffffffffffffff1916149050919050565b6111c8816118f2565b611207576040517f08c379a00000000000000000000000000000000000000000000000000000000081526004016111fe90612a2f565b60405180910390fd5b50565b600033905090565b816004600083815260200190815260200160002060006101000a81548173ffffffffffffffffffffffffffffffffffffffff021916908373ffffffffffffffffffffffffffffffffffffffff160217905550808273ffffffffffffffffffffffffffffffffffffffff1661128583610aab565b73ffffffffffffffffffffffffffffffffffffffff167f8c5be1e5ebec7d5bd14f71427d1e84f3dd0314c0f7b2291e5b200ac8c7c3b92560405160405180910390a45050565b6000806112d783610aab565b90508073ffffffffffffffffffffffffffffffffffffffff168473ffffffffffffffffffffffffffffffffffffffff16148061131957506113188185611025565b5b8061135757508373ffffffffffffffffffffffffffffffffffffffff1661133f846107e8565b73ffffffffffffffffffffffffffffffffffffffff16145b91505092915050565b8273ffffffffffffffffffffffffffffffffffffffff1661138082610aab565b73ffffffffffffffffffffffffffffffffffffffff16146113d6576040517f08c379a00000000000000000000000000000000000000000000000000000000081526004016113cd906128ef565b60405180910390fd5b600073ffffffffffffffffffffffffffffffffffffffff168273ffffffffffffffffffffffffffffffffffffffff161415611446576040517f08c379a000000000000000000000000000000000000000000000000000000000815260040161143d9061294f565b60405180910390fd5b611451838383611b0b565b61145c600082611212565b6001600360008573ffffffffffffffffffffffffffffffffffffffff1673ffffffffffffffffffffffffffffffffffffffff16815260200190815260200160002060008282546114ac9190612c64565b925050819055506001600360008473ffffffffffffffffffffffffffffffffffffffff1673ffffffffffffffffffffffffffffffffffffffff16815260200190815260200160002060008282546115039190612b83565b92505081905550816002600083815260200190815260200160002060006101000a81548173ffffffffffffffffffffffffffffffffffffffff021916908373ffffffffffffffffffffffffffffffffffffffff160217905550808273ffffffffffffffffffffffffffffffffffffffff168473ffffffffffffffffffffffffffffffffffffffff167fddf252ad1be2c89b69c2b068fc378daa952ba7f163c4a11628f55a4df523b3ef60405160405180910390a46115c2838383611b10565b505050565b6115cf61120a565b73ffffffffffffffffffffffffffffffffffffffff166115ed610c7a565b73ffffffffffffffffffffffffffffffffffffffff1614611643576040517f08c379a000000000000000000000000000000000000000000000000000000000815260040161163a90612a0f565b60405180910390fd5b565b6000600660009054906101000a900473ffffffffffffffffffffffffffffffffffffffff16905081600660006101000a81548173ffffffffffffffffffffffffffffffffffffffff021916908373ffffffffffffffffffffffffffffffffffffffff1602179055508173ffffffffffffffffffffffffffffffffffffffff168173ffffffffffffffffffffffffffffffffffffffff167f8be0079c531659141344cd1fd0a4f28419497f9722a3daafe3b4186f6b6457e060405160405180910390a35050565b611725828260405180602001604052806000815250611b15565b5050565b8173ffffffffffffffffffffffffffffffffffffffff168373ffffffffffffffffffffffffffffffffffffffff161415611798576040517f08c379a000000000000000000000000000000000000000000000000000000000815260040161178f9061296f565b60405180910390fd5b80600560008573ffffffffffffffffffffffffffffffffffffffff1673ffffffffffffffffffffffffffffffffffffffff16815260200190815260200160002060008473ffffffffffffffffffffffffffffffffffffffff1673ffffffffffffffffffffffffffffffffffffffff16815260200190815260200160002060006101000a81548160ff0219169083151502179055508173ffffffffffffffffffffffffffffffffffffffff168373ffffffffffffffffffffffffffffffffffffffff167f17307eab39ab6107e8899845ad3d59bd9653f200f220920489ca2b5937696c31836040516118899190612832565b60405180910390a3505050565b6118a1848484611360565b6118ad84848484611b70565b6118ec576040517f08c379a00000000000000000000000000000000000000000000000000000000081526004016118e39061288f565b60405180910390fd5b50505050565b60008073ffffffffffffffffffffffffffffffffffffffff166002600084815260200190815260200160002060009054906101000a900473ffffffffffffffffffffffffffffffffffffffff1673ffffffffffffffffffffffffffffffffffffffff1614159050919050565b606060008214156119a6576040518060400160405280600181526020017f30000000000000000000000000000000000000000000000000000000000000008152509050611b06565b600082905060005b600082146119d85780806119c190612dc3565b915050600a826119d19190612bd9565b91506119ae565b60008167ffffffffffffffff811115611a1a577f4e487b7100000000000000000000000000000000000000000000000000000000600052604160045260246000fd5b6040519080825280601f01601f191660200182016040528015611a4c5781602001600182028036833780820191505090505b5090505b60008514611aff57600182611a659190612c64565b9150600a85611a749190612e0c565b6030611a809190612b83565b60f81b818381518110611abc577f4e487b7100000000000000000000000000000000000000000000000000000000600052603260045260246000fd5b60200101907effffffffffffffffffffffffffffffffffffffffffffffffffffffffffffff1916908160001a905350600a85611af89190612bd9565b9450611a50565b8093505050505b919050565b505050565b505050565b611b1f8383611d07565b611b2c6000848484611b70565b611b6b576040517f08c379a0000000000000000000000000000000000000000000000000000000008152600401611b629061288f565b60405180910390fd5b505050565b6000611b918473ffffffffffffffffffffffffffffffffffffffff16611ee1565b15611cfa578373ffffffffffffffffffffffffffffffffffffffff1663150b7a02611bba61120a565b8786866040518563ffffffff1660e01b8152600401611bdc94939291906127e6565b602060405180830381600087803b158015611bf657600080fd5b505af1925050508015611c2757506040513d601f19601f82011682018060405250810190611c2491906122bb565b60015b611caa573d8060008114611c57576040519150601f19603f3d011682016040523d82523d6000602084013e611c5c565b606091505b50600081511415611ca2576040517f08c379a0000000000000000000000000000000000000000000000000000000008152600401611c999061288f565b60405180910390fd5b805181602001fd5b63150b7a0260e01b7bffffffffffffffffffffffffffffffffffffffffffffffffffffffff1916817bffffffffffffffffffffffffffffffffffffffffffffffffffffffff191614915050611cff565b600190505b949350505050565b600073ffffffffffffffffffffffffffffffffffffffff168273ffffffffffffffffffffffffffffffffffffffff161415611d77576040517f08c379a0000000000000000000000000000000000000000000000000000000008152600401611d6e906129ef565b60405180910390fd5b611d80816118f2565b15611dc0576040517f08c379a0000000000000000000000000000000000000000000000000000000008152600401611db79061290f565b60405180910390fd5b611dcc60008383611b0b565b6001600360008473ffffffffffffffffffffffffffffffffffffffff1673ffffffffffffffffffffffffffffffffffffffff1681526020019081526020016000206000828254611e1c9190612b83565b92505081905550816002600083815260200190815260200160002060006101000a81548173ffffffffffffffffffffffffffffffffffffffff021916908373ffffffffffffffffffffffffffffffffffffffff160217905550808273ffffffffffffffffffffffffffffffffffffffff16600073ffffffffffffffffffffffffffffffffffffffff167fddf252ad1be2c89b69c2b068fc378daa952ba7f163c4a11628f55a4df523b3ef60405160405180910390a4611edd60008383611b10565b5050565b6000808273ffffffffffffffffffffffffffffffffffffffff163b119050919050565b828054611f1090612d60565b90600052602060002090601f016020900481019282611f325760008555611f79565b82601f10611f4b57803560ff1916838001178555611f79565b82800160010185558215611f79579182015b82811115611f78578235825591602001919060010190611f5d565b5b509050611f869190611f8a565b5090565b5b80821115611fa3576000816000905550600101611f8b565b5090565b6000611fba611fb584612aef565b612aca565b905082815260208101848484011115611fd257600080fd5b611fdd848285612d1e565b509392505050565b600081359050611ff481613348565b92915050565b6000813590506120098161335f565b92915050565b60008135905061201e81613376565b92915050565b60008151905061203381613376565b92915050565b600082601f83011261204a57600080fd5b813561205a848260208601611fa7565b91505092915050565b60008083601f84011261207557600080fd5b8235905067ffffffffffffffff81111561208e57600080fd5b6020830191508360018202830111156120a657600080fd5b9250929050565b6000813590506120bc8161338d565b92915050565b6000602082840312156120d457600080fd5b60006120e284828501611fe5565b91505092915050565b600080604083850312156120fe57600080fd5b600061210c85828601611fe5565b925050602061211d85828601611fe5565b9150509250929050565b60008060006060848603121561213c57600080fd5b600061214a86828701611fe5565b935050602061215b86828701611fe5565b925050604061216c868287016120ad565b9150509250925092565b6000806000806080858703121561218c57600080fd5b600061219a87828801611fe5565b94505060206121ab87828801611fe5565b93505060406121bc878288016120ad565b925050606085013567ffffffffffffffff8111156121d957600080fd5b6121e587828801612039565b91505092959194509250565b6000806040838503121561220457600080fd5b600061221285828601611fe5565b925050602061222385828601611ffa565b9150509250929050565b6000806040838503121561224057600080fd5b600061224e85828601611fe5565b925050602061225f858286016120ad565b9150509250929050565b60006020828403121561227b57600080fd5b600061228984828501611ffa565b91505092915050565b6000602082840312156122a457600080fd5b60006122b28482850161200f565b91505092915050565b6000602082840312156122cd57600080fd5b60006122db84828501612024565b91505092915050565b600080602083850312156122f757600080fd5b600083013567ffffffffffffffff81111561231157600080fd5b61231d85828601612063565b92509250509250929050565b60006020828403121561233b57600080fd5b6000612349848285016120ad565b91505092915050565b61235b81612caa565b82525050565b61236a81612c98565b82525050565b61237981612cbc565b82525050565b600061238a82612b35565b6123948185612b4b565b93506123a4818560208601612d2d565b6123ad81612ef9565b840191505092915050565b60006123c382612b40565b6123cd8185612b67565b93506123dd818560208601612d2d565b6123e681612ef9565b840191505092915050565b60006123fc82612b40565b6124068185612b78565b9350612416818560208601612d2d565b80840191505092915050565b6000815461242f81612d60565b6124398186612b78565b94506001821660008114612454576001811461246557612498565b60ff19831686528186019350612498565b61246e85612b20565b60005b8381101561249057815481890152600182019150602081019050612471565b838801955050505b50505092915050565b60006124ae601083612b67565b91506124b982612f0a565b602082019050919050565b60006124d1603283612b67565b91506124dc82612f33565b604082019050919050565b60006124f4601383612b67565b91506124ff82612f82565b602082019050919050565b6000612517602683612b67565b915061252282612fab565b604082019050919050565b600061253a602583612b67565b915061254582612ffa565b604082019050919050565b600061255d601c83612b67565b915061256882613049565b602082019050919050565b6000612580600e83612b67565b915061258b82613072565b602082019050919050565b60006125a3602483612b67565b91506125ae8261309b565b604082019050919050565b60006125c6601983612b67565b91506125d1826130ea565b602082019050919050565b60006125e9600883612b67565b91506125f482613113565b602082019050919050565b600061260c602983612b67565b91506126178261313c565b604082019050919050565b600061262f603e83612b67565b915061263a8261318b565b604082019050919050565b6000612652602083612b67565b915061265d826131da565b602082019050919050565b6000612675600583612b78565b915061268082613203565b600582019050919050565b6000612698602083612b67565b91506126a38261322c565b602082019050919050565b60006126bb601883612b67565b91506126c682613255565b602082019050919050565b60006126de602183612b67565b91506126e98261327e565b604082019050919050565b6000612701600083612b5c565b915061270c826132cd565b600082019050919050565b6000612724602e83612b67565b915061272f826132d0565b604082019050919050565b6000612747601583612b67565b91506127528261331f565b602082019050919050565b61276681612d14565b82525050565b60006127788285612422565b915061278482846123f1565b915061278f82612668565b91508190509392505050565b60006127a6826126f4565b9150819050919050565b60006020820190506127c56000830184612361565b92915050565b60006020820190506127e06000830184612352565b92915050565b60006080820190506127fb6000830187612361565b6128086020830186612361565b612815604083018561275d565b8181036060830152612827818461237f565b905095945050505050565b60006020820190506128476000830184612370565b92915050565b6000602082019050818103600083015261286781846123b8565b905092915050565b60006020820190508181036000830152612888816124a1565b9050919050565b600060208201905081810360008301526128a8816124c4565b9050919050565b600060208201905081810360008301526128c8816124e7565b9050919050565b600060208201905081810360008301526128e88161250a565b9050919050565b600060208201905081810360008301526129088161252d565b9050919050565b6000602082019050818103600083015261292881612550565b9050919050565b6000602082019050818103600083015261294881612573565b9050919050565b6000602082019050818103600083015261296881612596565b9050919050565b60006020820190508181036000830152612988816125b9565b9050919050565b600060208201905081810360008301526129a8816125dc565b9050919050565b600060208201905081810360008301526129c8816125ff565b9050919050565b600060208201905081810360008301526129e881612622565b9050919050565b60006020820190508181036000830152612a0881612645565b9050919050565b60006020820190508181036000830152612a288161268b565b9050919050565b60006020820190508181036000830152612a48816126ae565b9050919050565b60006020820190508181036000830152612a68816126d1565b9050919050565b60006020820190508181036000830152612a8881612717565b9050919050565b60006020820190508181036000830152612aa88161273a565b9050919050565b6000602082019050612ac4600083018461275d565b92915050565b6000612ad4612ae5565b9050612ae08282612d92565b919050565b6000604051905090565b600067ffffffffffffffff821115612b0a57612b09612eca565b5b612b1382612ef9565b9050602081019050919050565b60008190508160005260206000209050919050565b600081519050919050565b600081519050919050565b600082825260208201905092915050565b600081905092915050565b600082825260208201905092915050565b600081905092915050565b6000612b8e82612d14565b9150612b9983612d14565b9250827fffffffffffffffffffffffffffffffffffffffffffffffffffffffffffffffff03821115612bce57612bcd612e3d565b5b828201905092915050565b6000612be482612d14565b9150612bef83612d14565b925082612bff57612bfe612e6c565b5b828204905092915050565b6000612c1582612d14565b9150612c2083612d14565b9250817fffffffffffffffffffffffffffffffffffffffffffffffffffffffffffffffff0483118215151615612c5957612c58612e3d565b5b828202905092915050565b6000612c6f82612d14565b9150612c7a83612d14565b925082821015612c8d57612c8c612e3d565b5b828203905092915050565b6000612ca382612cf4565b9050919050565b6000612cb582612cf4565b9050919050565b60008115159050919050565b60007fffffffff0000000000000000000000000000000000000000000000000000000082169050919050565b600073ffffffffffffffffffffffffffffffffffffffff82169050919050565b6000819050919050565b82818337600083830152505050565b60005b83811015612d4b578082015181840152602081019050612d30565b83811115612d5a576000848401525b50505050565b60006002820490506001821680612d7857607f821691505b60208210811415612d8c57612d8b612e9b565b5b50919050565b612d9b82612ef9565b810181811067ffffffffffffffff82111715612dba57612db9612eca565b5b80604052505050565b6000612dce82612d14565b91507fffffffffffffffffffffffffffffffffffffffffffffffffffffffffffffffff821415612e0157612e00612e3d565b5b600182019050919050565b6000612e1782612d14565b9150612e2283612d14565b925082612e3257612e31612e6c565b5b828206905092915050565b7f4e487b7100000000000000000000000000000000000000000000000000000000600052601160045260246000fd5b7f4e487b7100000000000000000000000000000000000000000000000000000000600052601260045260246000fd5b7f4e487b7100000000000000000000000000000000000000000000000000000000600052602260045260246000fd5b7f4e487b7100000000000000000000000000000000000000000000000000000000600052604160045260246000fd5b6000601f19601f8301169050919050565b7f77726f6e67206d696e742076616c756500000000000000000000000000000000600082015250565b7f4552433732313a207472616e7366657220746f206e6f6e20455243373231526560008201527f63656976657220696d706c656d656e7465720000000000000000000000000000602082015250565b7f6d696e74696e67206e6f7420656e61626c656400000000000000000000000000600082015250565b7f4f776e61626c653a206e6577206f776e657220697320746865207a65726f206160008201527f6464726573730000000000000000000000000000000000000000000000000000602082015250565b7f4552433732313a207472616e736665722066726f6d20696e636f72726563742060008201527f6f776e6572000000000000000000000000000000000000000000000000000000602082015250565b7f4552433732313a20746f6b656e20616c7265616479206d696e74656400000000600082015250565b7f77697468647261776661696c6564000000000000000000000000000000000000600082015250565b7f4552433732313a207472616e7366657220746f20746865207a65726f2061646460008201527f7265737300000000000000000000000000000000000000000000000000000000602082015250565b7f4552433732313a20617070726f766520746f2063616c6c657200000000000000600082015250565b7f736f6c64206f7574000000000000000000000000000000000000000000000000600082015250565b7f4552433732313a2061646472657373207a65726f206973206e6f74206120766160008201527f6c6964206f776e65720000000000000000000000000000000000000000000000602082015250565b7f4552433732313a20617070726f76652063616c6c6572206973206e6f7420746f60008201527f6b656e206f776e6572206e6f7220617070726f76656420666f7220616c6c0000602082015250565b7f4552433732313a206d696e7420746f20746865207a65726f2061646472657373600082015250565b7f2e6a736f6e000000000000000000000000000000000000000000000000000000600082015250565b7f4f776e61626c653a2063616c6c6572206973206e6f7420746865206f776e6572600082015250565b7f4552433732313a20696e76616c696420746f6b656e2049440000000000000000600082015250565b7f4552433732313a20617070726f76616c20746f2063757272656e74206f776e6560008201527f7200000000000000000000000000000000000000000000000000000000000000602082015250565b50565b7f4552433732313a2063616c6c6572206973206e6f7420746f6b656e206f776e6560008201527f72206e6f7220617070726f766564000000000000000000000000000000000000602082015250565b7f546f6b656e20646f6573206e6f74206578697374210000000000000000000000600082015250565b61335181612c98565b811461335c57600080fd5b50565b61336881612cbc565b811461337357600080fd5b50565b61337f81612cc8565b811461338a57600080fd5b50565b61339681612d14565b81146133a157600080fd5b5056fea264697066735822122035dfe1d1553a9b9405ab1c430a686d37e3dbc98308fa50e8e0d59661b0bf5a9b64736f6c63430008040033",
  "linkReferences": {},
  "deployedLinkReferences": {}
}